{
  "contractName": "Lottery",
  "abi": [
    {
      "inputs": [],
      "stateMutability": "nonpayable",
      "type": "constructor"
    },
    {
      "inputs": [
        {
          "internalType": "uint256",
          "name": "",
          "type": "uint256"
        }
      ],
      "name": "frequencies",
      "outputs": [
        {
          "internalType": "address",
          "name": "",
          "type": "address"
        }
      ],
      "stateMutability": "view",
      "type": "function",
      "constant": true
    },
    {
      "inputs": [
        {
          "internalType": "address",
          "name": "",
          "type": "address"
        }
      ],
      "name": "hasParticipated",
      "outputs": [
        {
          "internalType": "bool",
          "name": "",
          "type": "bool"
        }
      ],
      "stateMutability": "view",
      "type": "function",
      "constant": true
    },
    {
      "inputs": [],
      "name": "manager",
      "outputs": [
        {
          "internalType": "address payable",
          "name": "",
          "type": "address"
        }
      ],
      "stateMutability": "view",
      "type": "function",
      "constant": true
    },
    {
      "inputs": [],
      "name": "price",
      "outputs": [
        {
          "internalType": "uint256",
          "name": "",
          "type": "uint256"
        }
      ],
      "stateMutability": "view",
      "type": "function",
      "constant": true
    },
    {
      "inputs": [],
      "name": "receiver",
      "outputs": [
        {
          "internalType": "address payable",
          "name": "",
          "type": "address"
        }
      ],
      "stateMutability": "view",
      "type": "function",
      "constant": true
    },
    {
      "inputs": [],
      "name": "ticketsleft",
      "outputs": [
        {
          "internalType": "uint256",
          "name": "",
          "type": "uint256"
        }
      ],
      "stateMutability": "view",
      "type": "function",
      "constant": true
    },
    {
      "inputs": [],
      "name": "totaltickets",
      "outputs": [
        {
          "internalType": "uint256",
          "name": "",
          "type": "uint256"
        }
      ],
      "stateMutability": "view",
      "type": "function",
      "constant": true
    },
    {
      "inputs": [],
      "name": "winner",
      "outputs": [
        {
          "internalType": "address payable",
          "name": "",
          "type": "address"
        }
      ],
      "stateMutability": "view",
      "type": "function",
      "constant": true
    },
    {
      "stateMutability": "payable",
      "type": "receive",
      "payable": true
    },
    {
      "inputs": [],
      "name": "getManager",
      "outputs": [
        {
          "internalType": "address",
          "name": "",
          "type": "address"
        }
      ],
      "stateMutability": "view",
      "type": "function",
      "constant": true
    },
    {
      "inputs": [],
      "name": "getReceiver",
      "outputs": [
        {
          "internalType": "address",
          "name": "",
          "type": "address"
        }
      ],
      "stateMutability": "view",
      "type": "function",
      "constant": true
    },
    {
      "inputs": [
        {
          "internalType": "uint256",
          "name": "_totaltickets",
          "type": "uint256"
        },
        {
          "internalType": "uint256",
          "name": "_price",
          "type": "uint256"
        }
      ],
      "name": "set",
      "outputs": [],
      "stateMutability": "nonpayable",
      "type": "function"
    },
    {
      "inputs": [],
      "name": "getTickets",
      "outputs": [
        {
          "internalType": "uint256",
          "name": "",
          "type": "uint256"
        }
      ],
      "stateMutability": "view",
      "type": "function",
      "constant": true
    },
    {
      "inputs": [],
      "name": "getTicketsleft",
      "outputs": [
        {
          "internalType": "uint256",
          "name": "",
          "type": "uint256"
        }
      ],
      "stateMutability": "view",
      "type": "function",
      "constant": true
    },
    {
      "inputs": [],
      "name": "getPrice",
      "outputs": [
        {
          "internalType": "uint256",
          "name": "",
          "type": "uint256"
        }
      ],
      "stateMutability": "view",
      "type": "function",
      "constant": true
    },
    {
      "inputs": [],
      "name": "getfundsneeded",
      "outputs": [
        {
          "internalType": "uint256",
          "name": "",
          "type": "uint256"
        }
      ],
      "stateMutability": "view",
      "type": "function",
      "constant": true
    },
    {
      "inputs": [
        {
          "internalType": "string",
          "name": "name",
          "type": "string"
        },
        {
          "internalType": "uint256",
          "name": "tickets",
          "type": "uint256"
        }
      ],
      "name": "participate",
      "outputs": [],
      "stateMutability": "payable",
      "type": "function",
      "payable": true
    },
    {
      "inputs": [],
      "name": "getParticipants",
      "outputs": [
        {
          "components": [
            {
              "internalType": "string",
              "name": "participantName",
              "type": "string"
            },
            {
              "internalType": "address",
              "name": "participantAddress",
              "type": "address"
            },
            {
              "internalType": "uint256",
              "name": "participantTime",
              "type": "uint256"
            },
            {
              "internalType": "uint256",
              "name": "participantTickets",
              "type": "uint256"
            }
          ],
          "internalType": "struct Lottery.Participant[]",
          "name": "",
          "type": "tuple[]"
        }
      ],
      "stateMutability": "view",
      "type": "function",
      "constant": true
    },
    {
      "inputs": [],
      "name": "reset",
      "outputs": [],
      "stateMutability": "nonpayable",
      "type": "function"
    },
    {
      "inputs": [],
      "name": "withdrawFunds",
      "outputs": [
        {
          "internalType": "string",
          "name": "",
          "type": "string"
        }
      ],
      "stateMutability": "payable",
      "type": "function",
      "payable": true
    },
    {
      "inputs": [],
      "name": "payWinner",
      "outputs": [],
      "stateMutability": "nonpayable",
      "type": "function"
    },
    {
      "inputs": [],
      "name": "getWinner",
      "outputs": [
        {
          "internalType": "address",
          "name": "",
          "type": "address"
        }
      ],
      "stateMutability": "view",
      "type": "function",
      "constant": true
    },
    {
      "inputs": [],
      "name": "decide",
      "outputs": [],
      "stateMutability": "nonpayable",
      "type": "function"
    }
  ],
  "bytecode": "0x608060405234801561001057600080fd5b50306000806101000a81548173ffffffffffffffffffffffffffffffffffffffff021916908373ffffffffffffffffffffffffffffffffffffffff16021790555033600160006101000a81548173ffffffffffffffffffffffffffffffffffffffff021916908373ffffffffffffffffffffffffffffffffffffffff160217905550612250806100a16000396000f3fe6080604052600436106101395760003560e01c8063a035b1fe116100ab578063d826f88f1161006f578063d826f88f146103d0578063dfbf53ae146103e7578063e6f2f0ec14610412578063f1c4b85d1461044f578063f61b394a1461046b578063f7260d3e1461049657610140565b8063a035b1fe146102fb578063a80b9b9e14610326578063b4fb3ee314610351578063be71248a1461038e578063d5009584146103a557610140565b80634ed02622116100fd5780634ed02622146101f95780635aa68ac01461022457806386ace67b1461024f5780638e7ea5b21461027a57806398aca922146102a557806398d5fdca146102d057610140565b80631ab06ee51461014557806324600fc31461016e578063305fcef31461018c57806330c32237146101a3578063481c6a75146101ce57610140565b3661014057005b600080fd5b34801561015157600080fd5b5061016c60048036038101906101679190611536565b6104c1565b005b6101766105ae565b604051610183919061160f565b60405180910390f35b34801561019857600080fd5b506101a161074c565b005b3480156101af57600080fd5b506101b861084d565b6040516101c59190611640565b60405180910390f35b3480156101da57600080fd5b506101e3610857565b6040516101f0919061169c565b60405180910390f35b34801561020557600080fd5b5061020e61087d565b60405161021b9190611640565b60405180910390f35b34801561023057600080fd5b50610239610887565b6040516102469190611856565b60405180910390f35b34801561025b57600080fd5b506102646109e2565b6040516102719190611640565b60405180910390f35b34801561028657600080fd5b5061028f6109e8565b60405161029c9190611887565b60405180910390f35b3480156102b157600080fd5b506102ba610aa2565b6040516102c79190611887565b60405180910390f35b3480156102dc57600080fd5b506102e5610acb565b6040516102f29190611640565b60405180910390f35b34801561030757600080fd5b50610310610ad5565b60405161031d9190611640565b60405180910390f35b34801561033257600080fd5b5061033b610adb565b6040516103489190611640565b60405180910390f35b34801561035d57600080fd5b50610378600480360381019061037391906118ce565b610af2565b6040516103859190611916565b60405180910390f35b34801561039a57600080fd5b506103a3610b12565b005b3480156103b157600080fd5b506103ba610d11565b6040516103c79190611887565b60405180910390f35b3480156103dc57600080fd5b506103e5610d3b565b005b3480156103f357600080fd5b506103fc610dfe565b604051610409919061169c565b60405180910390f35b34801561041e57600080fd5b5061043960048036038101906104349190611931565b610e24565b6040516104469190611887565b60405180910390f35b61046960048036038101906104649190611a93565b610e63565b005b34801561047757600080fd5b506104806112c5565b60405161048d9190611640565b60405180910390f35b3480156104a257600080fd5b506104ab6112cb565b6040516104b8919061169c565b60405180910390f35b600160009054906101000a900473ffffffffffffffffffffffffffffffffffffffff1673ffffffffffffffffffffffffffffffffffffffff163373ffffffffffffffffffffffffffffffffffffffff1614610551576040517f08c379a000000000000000000000000000000000000000000000000000000000815260040161054890611b61565b60405180910390fd5b6003821015610595576040517f08c379a000000000000000000000000000000000000000000000000000000000815260040161058c90611bf3565b60405180910390fd5b8160048190555081600581905550806003819055505050565b606060005b6006805490508110156106a1576000600682815481106105d6576105d5611c13565b5b9060005260206000209060040201905060008160010160009054906101000a900473ffffffffffffffffffffffffffffffffffffffff1690506000826003015490506000610622610acb565b8261062d9190611c71565b9050600081111561068a578273ffffffffffffffffffffffffffffffffffffffff166108fc829081150290604051600060405180830381858888f1935050505015801561067e573d6000803e3d6000fd5b50600084600301819055505b50505050808061069990611ccb565b9150506105b3565b506106aa610d3b565b600454600581905550600660006106c19190611366565b600860006106cf919061138a565b6000600260006101000a81548173ffffffffffffffffffffffffffffffffffffffff021916908373ffffffffffffffffffffffffffffffffffffffff1602179055506040518060400160405280601a81526020017f4e6f7420616c6c207469636b657473207765726520736f6c6421000000000000815250905090565b600160009054906101000a900473ffffffffffffffffffffffffffffffffffffffff1673ffffffffffffffffffffffffffffffffffffffff163373ffffffffffffffffffffffffffffffffffffffff16146107dc576040517f08c379a00000000000000000000000000000000000000000000000000000000081526004016107d390611b61565b60405180910390fd5b60006006805490501415610825576040517f08c379a000000000000000000000000000000000000000000000000000000000815260040161081c90611d60565b60405180910390fd5b61082d610adb565b4714156108415761083c610b12565b61084b565b6108496105ae565b505b565b6000600554905090565b600160009054906101000a900473ffffffffffffffffffffffffffffffffffffffff1681565b6000600454905090565b60606006805480602002602001604051908101604052809291908181526020016000905b828210156109d957838290600052602060002090600402016040518060800160405290816000820180546108de90611daf565b80601f016020809104026020016040519081016040528092919081815260200182805461090a90611daf565b80156109575780601f1061092c57610100808354040283529160200191610957565b820191906000526020600020905b81548152906001019060200180831161093a57829003601f168201915b505050505081526020016001820160009054906101000a900473ffffffffffffffffffffffffffffffffffffffff1673ffffffffffffffffffffffffffffffffffffffff1673ffffffffffffffffffffffffffffffffffffffff16815260200160028201548152602001600382015481525050815260200190600101906108ab565b50505050905090565b60055481565b6000600160009054906101000a900473ffffffffffffffffffffffffffffffffffffffff1673ffffffffffffffffffffffffffffffffffffffff163373ffffffffffffffffffffffffffffffffffffffff1614610a7a576040517f08c379a0000000000000000000000000000000000000000000000000000000008152600401610a7190611b61565b60405180910390fd5b600260009054906101000a900473ffffffffffffffffffffffffffffffffffffffff16905090565b60008060009054906101000a900473ffffffffffffffffffffffffffffffffffffffff16905090565b6000600354905090565b60035481565b6000600354600454610aed9190611c71565b905090565b60076020528060005260406000206000915054906101000a900460ff1681565b600060088054905090506000610b266112ef565b9050600082824333604051602001610b4093929190611e4a565b6040516020818303038152906040528051906020012060001c610b639190611eb6565b9050600081905060088181548110610b7e57610b7d611c13565b5b9060005260206000200160009054906101000a900473ffffffffffffffffffffffffffffffffffffffff16600260006101000a81548173ffffffffffffffffffffffffffffffffffffffff021916908373ffffffffffffffffffffffffffffffffffffffff1602179055506000600247610bf89190611ee7565b905060008147610c089190611f18565b9050600260009054906101000a900473ffffffffffffffffffffffffffffffffffffffff1673ffffffffffffffffffffffffffffffffffffffff166108fc839081150290604051600060405180830381858888f19350505050158015610c72573d6000803e3d6000fd5b50600160009054906101000a900473ffffffffffffffffffffffffffffffffffffffff1673ffffffffffffffffffffffffffffffffffffffff166108fc829081150290604051600060405180830381858888f19350505050158015610cdb573d6000803e3d6000fd5b50610ce4610d3b565b60045460058190555060066000610cfb9190611366565b60086000610d09919061138a565b505050505050565b6000600160009054906101000a900473ffffffffffffffffffffffffffffffffffffffff16905090565b60005b600680549050811015610dfb5760006007600060068481548110610d6557610d64611c13565b5b906000526020600020906004020160010160009054906101000a900473ffffffffffffffffffffffffffffffffffffffff1673ffffffffffffffffffffffffffffffffffffffff1673ffffffffffffffffffffffffffffffffffffffff16815260200190815260200160002060006101000a81548160ff0219169083151502179055508080610df390611ccb565b915050610d3e565b50565b600260009054906101000a900473ffffffffffffffffffffffffffffffffffffffff1681565b60088181548110610e3457600080fd5b906000526020600020016000915054906101000a900473ffffffffffffffffffffffffffffffffffffffff1681565b600160009054906101000a900473ffffffffffffffffffffffffffffffffffffffff1673ffffffffffffffffffffffffffffffffffffffff163373ffffffffffffffffffffffffffffffffffffffff161415610ef4576040517f08c379a0000000000000000000000000000000000000000000000000000000008152600401610eeb90611f98565b60405180910390fd5b60003390506000610f03610acb565b83610f0e9190611c71565b905060001515600760003373ffffffffffffffffffffffffffffffffffffffff1673ffffffffffffffffffffffffffffffffffffffff16815260200190815260200160002060009054906101000a900460ff16151514610fa3576040517f08c379a0000000000000000000000000000000000000000000000000000000008152600401610f9a90612004565b60405180910390fd5b6002610fad61087d565b610fb79190611ee7565b8310610ff8576040517f08c379a0000000000000000000000000000000000000000000000000000000008152600401610fef90612096565b60405180910390fd5b8173ffffffffffffffffffffffffffffffffffffffff1631811115611052576040517f08c379a000000000000000000000000000000000000000000000000000000000815260040161104990612128565b60405180910390fd5b600554831115611097576040517f08c379a000000000000000000000000000000000000000000000000000000000815260040161108e90612194565b60405180910390fd5b600081346110a59190611f18565b90508273ffffffffffffffffffffffffffffffffffffffff166108fc829081150290604051600060405180830381858888f193505050501580156110ed573d6000803e3d6000fd5b50600060405180608001604052808781526020013373ffffffffffffffffffffffffffffffffffffffff168152602001428152602001868152509050600681908060018154018082558091505060019003906000526020600020906004020160009091909190915060008201518160000190805190602001906111719291906113ab565b5060208201518160010160006101000a81548173ffffffffffffffffffffffffffffffffffffffff021916908373ffffffffffffffffffffffffffffffffffffffff160217905550604082015181600201556060820151816003015550506001600760003373ffffffffffffffffffffffffffffffffffffffff1673ffffffffffffffffffffffffffffffffffffffff16815260200190815260200160002060006101000a81548160ff02191690831515021790555060005b858110156112a8576008339080600181540180825580915050600190039060005260206000200160009091909190916101000a81548173ffffffffffffffffffffffffffffffffffffffff021916908373ffffffffffffffffffffffffffffffffffffffff16021790555080806112a090611ccb565b91505061122a565b50846005546112b79190611f18565b600581905550505050505050565b60045481565b60008054906101000a900473ffffffffffffffffffffffffffffffffffffffff1681565b600042600160009054906101000a900473ffffffffffffffffffffffffffffffffffffffff1660008054906101000a900473ffffffffffffffffffffffffffffffffffffffff16604051602001611348939291906121dd565b6040516020818303038152906040528051906020012060001c905090565b50805460008255600402906000526020600020908101906113879190611431565b50565b50805460008255906000526020600020908101906113a8919061148f565b50565b8280546113b790611daf565b90600052602060002090601f0160209004810192826113d95760008555611420565b82601f106113f257805160ff1916838001178555611420565b82800160010185558215611420579182015b8281111561141f578251825591602001919060010190611404565b5b50905061142d919061148f565b5090565b5b8082111561148b576000808201600061144b91906114ac565b6001820160006101000a81549073ffffffffffffffffffffffffffffffffffffffff02191690556002820160009055600382016000905550600401611432565b5090565b5b808211156114a8576000816000905550600101611490565b5090565b5080546114b890611daf565b6000825580601f106114ca57506114e9565b601f0160209004906000526020600020908101906114e8919061148f565b5b50565b6000604051905090565b600080fd5b600080fd5b6000819050919050565b61151381611500565b811461151e57600080fd5b50565b6000813590506115308161150a565b92915050565b6000806040838503121561154d5761154c6114f6565b5b600061155b85828601611521565b925050602061156c85828601611521565b9150509250929050565b600081519050919050565b600082825260208201905092915050565b60005b838110156115b0578082015181840152602081019050611595565b838111156115bf576000848401525b50505050565b6000601f19601f8301169050919050565b60006115e182611576565b6115eb8185611581565b93506115fb818560208601611592565b611604816115c5565b840191505092915050565b6000602082019050818103600083015261162981846115d6565b905092915050565b61163a81611500565b82525050565b60006020820190506116556000830184611631565b92915050565b600073ffffffffffffffffffffffffffffffffffffffff82169050919050565b60006116868261165b565b9050919050565b6116968161167b565b82525050565b60006020820190506116b1600083018461168d565b92915050565b600081519050919050565b600082825260208201905092915050565b6000819050602082019050919050565b600082825260208201905092915050565b60006116ff82611576565b61170981856116e3565b9350611719818560208601611592565b611722816115c5565b840191505092915050565b60006117388261165b565b9050919050565b6117488161172d565b82525050565b61175781611500565b82525050565b6000608083016000830151848203600086015261177a82826116f4565b915050602083015161178f602086018261173f565b5060408301516117a2604086018261174e565b5060608301516117b5606086018261174e565b508091505092915050565b60006117cc838361175d565b905092915050565b6000602082019050919050565b60006117ec826116b7565b6117f681856116c2565b935083602082028501611808856116d3565b8060005b85811015611844578484038952815161182585826117c0565b9450611830836117d4565b925060208a0199505060018101905061180c565b50829750879550505050505092915050565b6000602082019050818103600083015261187081846117e1565b905092915050565b6118818161172d565b82525050565b600060208201905061189c6000830184611878565b92915050565b6118ab8161172d565b81146118b657600080fd5b50565b6000813590506118c8816118a2565b92915050565b6000602082840312156118e4576118e36114f6565b5b60006118f2848285016118b9565b91505092915050565b60008115159050919050565b611910816118fb565b82525050565b600060208201905061192b6000830184611907565b92915050565b600060208284031215611947576119466114f6565b5b600061195584828501611521565b91505092915050565b600080fd5b600080fd5b7f4e487b7100000000000000000000000000000000000000000000000000000000600052604160045260246000fd5b6119a0826115c5565b810181811067ffffffffffffffff821117156119bf576119be611968565b5b80604052505050565b60006119d26114ec565b90506119de8282611997565b919050565b600067ffffffffffffffff8211156119fe576119fd611968565b5b611a07826115c5565b9050602081019050919050565b82818337600083830152505050565b6000611a36611a31846119e3565b6119c8565b905082815260208101848484011115611a5257611a51611963565b5b611a5d848285611a14565b509392505050565b600082601f830112611a7a57611a7961195e565b5b8135611a8a848260208601611a23565b91505092915050565b60008060408385031215611aaa57611aa96114f6565b5b600083013567ffffffffffffffff811115611ac857611ac76114fb565b5b611ad485828601611a65565b9250506020611ae585828601611521565b9150509250929050565b7f4f6e6c7920746865206d616e616765722063616e2063616c6c2074686973206660008201527f756e6374696f6e2e000000000000000000000000000000000000000000000000602082015250565b6000611b4b602883611581565b9150611b5682611aef565b604082019050919050565b60006020820190508181036000830152611b7a81611b3e565b9050919050565b7f596f75206e65656420746f20686176652061746c656173742033207469636b6560008201527f7473210000000000000000000000000000000000000000000000000000000000602082015250565b6000611bdd602383611581565b9150611be882611b81565b604082019050919050565b60006020820190508181036000830152611c0c81611bd0565b9050919050565b7f4e487b7100000000000000000000000000000000000000000000000000000000600052603260045260246000fd5b7f4e487b7100000000000000000000000000000000000000000000000000000000600052601160045260246000fd5b6000611c7c82611500565b9150611c8783611500565b9250817fffffffffffffffffffffffffffffffffffffffffffffffffffffffffffffffff0483118215151615611cc057611cbf611c42565b5b828202905092915050565b6000611cd682611500565b91507fffffffffffffffffffffffffffffffffffffffffffffffffffffffffffffffff821415611d0957611d08611c42565b5b600182019050919050565b7f4e6f206f6e652068617320706172746963697061746564207965742100000000600082015250565b6000611d4a601c83611581565b9150611d5582611d14565b602082019050919050565b60006020820190508181036000830152611d7981611d3d565b9050919050565b7f4e487b7100000000000000000000000000000000000000000000000000000000600052602260045260246000fd5b60006002820490506001821680611dc757607f821691505b60208210811415611ddb57611dda611d80565b5b50919050565b6000819050919050565b611dfc611df782611500565b611de1565b82525050565b60008160601b9050919050565b6000611e1a82611e02565b9050919050565b6000611e2c82611e0f565b9050919050565b611e44611e3f8261172d565b611e21565b82525050565b6000611e568286611deb565b602082019150611e668285611deb565b602082019150611e768284611e33565b601482019150819050949350505050565b7f4e487b7100000000000000000000000000000000000000000000000000000000600052601260045260246000fd5b6000611ec182611500565b9150611ecc83611500565b925082611edc57611edb611e87565b5b828206905092915050565b6000611ef282611500565b9150611efd83611500565b925082611f0d57611f0c611e87565b5b828204905092915050565b6000611f2382611500565b9150611f2e83611500565b925082821015611f4157611f40611c42565b5b828203905092915050565b7f546865206d616e616765722063616e6e6f742070617274696369706174652e00600082015250565b6000611f82601f83611581565b9150611f8d82611f4c565b602082019050919050565b60006020820190508181036000830152611fb181611f75565b9050919050565b7f596f75206861766520616c726561647920706172746963697061746564210000600082015250565b6000611fee601e83611581565b9150611ff982611fb8565b602082019050919050565b6000602082019050818103600083015261201d81611fe1565b9050919050565b7f596f752063616e6e6f7420627579206d6f7265207468616e2068616c66206f6660008201527f2074686520746f74616c207469636b6574732100000000000000000000000000602082015250565b6000612080603383611581565b915061208b82612024565b604082019050919050565b600060208201905081810360008301526120af81612073565b9050919050565b7f4e6f7420656e6f7567682062616c616e636520696e20796f7572206163636f7560008201527f6e74210000000000000000000000000000000000000000000000000000000000602082015250565b6000612112602383611581565b915061211d826120b6565b604082019050919050565b6000602082019050818103600083015261214181612105565b9050919050565b7f4e6f7420656e6f756768207469636b65747320617661696c61626c6521000000600082015250565b600061217e601d83611581565b915061218982612148565b602082019050919050565b600060208201905081810360008301526121ad81612171565b9050919050565b60006121bf82611e0f565b9050919050565b6121d76121d28261167b565b6121b4565b82525050565b60006121e98286611deb565b6020820191506121f982856121c6565b60148201915061220982846121c6565b60148201915081905094935050505056fea264697066735822122088e7d017460720ff6309c88efb0211db047c5ea2dcc4c1ceb66dca9b8c7f6b5664736f6c63430008090033",
  "immutableReferences": {},
  "source": "// SPDX-License-Identifier: MIT\r\npragma solidity ^0.8.0;\r\n\r\ncontract Lottery {\r\n    address payable public receiver;\r\n    address payable public manager;\r\n    address payable public winner;\r\n\r\n    uint256 public price;\r\n    uint256 public totaltickets;\r\n    uint256 public ticketsleft;\r\n\r\n    receive() external payable {}\r\n\r\n    constructor() {\r\n        receiver = payable(address(this));\r\n        manager = payable(msg.sender);\r\n    }\r\n\r\n    function getManager() external view returns (address) {\r\n        return manager;\r\n    }\r\n\r\n    function getReceiver() external view returns (address) {\r\n        return receiver;\r\n    }\r\n\r\n    /////////////////////////////////////////Manger-Section////////////////////////////////////////////////////////\r\n    modifier onlyManager() {\r\n        require(\r\n            msg.sender == manager,\r\n            \"Only the manager can call this function.\"\r\n        );\r\n        _;\r\n    }\r\n\r\n    modifier onlyParticipant() {\r\n        require(msg.sender != manager, \"The manager cannot participate.\");\r\n        _;\r\n    }\r\n\r\n    function set(uint256 _totaltickets, uint256 _price) external onlyManager {\r\n        require(_totaltickets >= 3, \"You need to have atleast 3 tickets!\");\r\n        totaltickets = _totaltickets;\r\n        ticketsleft = _totaltickets;\r\n        price = (_price);\r\n    }\r\n\r\n    function getTickets() public view returns (uint256) {\r\n        return totaltickets;\r\n    }\r\n\r\n    function getTicketsleft() external view returns (uint256) {\r\n        return ticketsleft;\r\n    }\r\n\r\n    function getPrice() public view returns (uint256) {\r\n        return price;\r\n    }\r\n\r\n    function getfundsneeded() public view returns (uint256) {\r\n        return ((totaltickets) * (price));\r\n    }\r\n\r\n    /////////////////////////////////////////Participation-Section////////////////////////////////////////////////////////\r\n\r\n    struct Participant {\r\n        string participantName;\r\n        address participantAddress;\r\n        uint256 participantTime;\r\n        uint256 participantTickets;\r\n    }\r\n\r\n    Participant[] participants;\r\n    mapping(address => bool) public hasParticipated;\r\n    address[] public frequencies;\r\n\r\n    function participate(string memory name, uint256 tickets)\r\n        external\r\n        payable\r\n        onlyParticipant\r\n    {\r\n        address payable buyer = payable(msg.sender);\r\n        uint256 cost = (tickets) * (getPrice());\r\n        require(\r\n            hasParticipated[msg.sender] == false,\r\n            \"You have already participated!\"\r\n        );\r\n        require(\r\n            tickets < (getTickets() / 2),\r\n            \"You cannot buy more than half of the total tickets!\"\r\n        );\r\n        require(cost <= buyer.balance, \"Not enough balance in your account!\");\r\n        require(tickets <= ticketsleft, \"Not enough tickets available!\");\r\n\r\n        uint256 extraAmount = (msg.value) - (cost);\r\n        (buyer).transfer(extraAmount);\r\n        Participant memory object = Participant(\r\n            name,\r\n            msg.sender,\r\n            block.timestamp,\r\n            tickets\r\n        );\r\n        participants.push(object);\r\n        hasParticipated[msg.sender] = true;\r\n        for (uint256 i = 0; i < tickets; i++) {\r\n            frequencies.push(msg.sender);\r\n        }\r\n        ticketsleft = ticketsleft - tickets;\r\n    }\r\n\r\n    function getParticipants() external view returns (Participant[] memory) {\r\n        return participants;\r\n    }\r\n\r\n    /////////////////////////////////////////Winner-Section////////////////////////////////////////////////////////\r\n\r\n    function reset() public {\r\n        for (uint256 i = 0; i < participants.length; i++) {\r\n            hasParticipated[participants[i].participantAddress] = false;\r\n        }\r\n    }\r\n\r\n    function withdrawFunds() public payable returns (string memory) {\r\n        for (uint256 i = 0; i < participants.length; i++) {\r\n            Participant storage object = participants[i];\r\n            address payable buyer = payable(object.participantAddress);\r\n            uint256 ticketsbought = object.participantTickets;\r\n            uint256 withdrawAmount = (ticketsbought) * (getPrice());\r\n\r\n            if (withdrawAmount > 0) {\r\n                buyer.transfer(withdrawAmount);\r\n                object.participantTickets = 0;\r\n            }\r\n        }\r\n\r\n        reset();\r\n        ticketsleft = totaltickets;\r\n        delete participants;\r\n        delete frequencies;\r\n        winner = payable(address(0));\r\n        return \"Not all tickets were sold!\";\r\n    }\r\n\r\n    function getRandom() internal view returns (uint256) {\r\n        return\r\n            uint256(\r\n                keccak256(abi.encodePacked(block.timestamp, manager, receiver))\r\n            );\r\n    }\r\n\r\n    function payWinner() public {\r\n        uint256 range = frequencies.length;\r\n        uint256 random = getRandom();\r\n        uint256 randomIndex = uint256(\r\n            keccak256(abi.encodePacked(random, block.number, msg.sender))\r\n        ) % range;\r\n        uint256 winnerIndex = randomIndex;\r\n        winner = payable(frequencies[winnerIndex]);\r\n        uint256 winningAmount = (address(this).balance) / 2;\r\n        uint256 leftAmount = (address(this).balance) - winningAmount;\r\n        winner.transfer(winningAmount);\r\n        manager.transfer(leftAmount);\r\n        reset();\r\n        ticketsleft = totaltickets;\r\n        delete participants;\r\n        delete frequencies;\r\n    }\r\n\r\n    function getWinner() external view onlyManager returns (address) {\r\n        return winner;\r\n    }\r\n\r\n    /////////////////////////////////////////Decision-Section////////////////////////////////////////////////////////\r\n\r\n    function decide() external onlyManager {\r\n        require(participants.length!=0,\"No one has participated yet!\");\r\n        if (address(this).balance == getfundsneeded()) {\r\n            payWinner();\r\n        } else {\r\n            withdrawFunds();\r\n        }\r\n    }\r\n}\r\n\r\n//1000000000000000000\r\n",
  "sourcePath": "C:\\Blockcahin\\AdvancedLotteryProject\\contracts\\Lottery.sol",
  "compiler": {
    "name": "solc",
    "version": "0.8.9+commit.e5eed63a.Emscripten.clang"
  },
  "schemaVersion": "3.4.11",
  "updatedAt": "2023-07-12T15:35:27.463Z",
  "networkType": "ethereum",
  "devdoc": {
    "kind": "dev",
    "methods": {},
    "version": 1
  },
  "userdoc": {
    "kind": "user",
    "methods": {},
    "version": 1
  }
}