{
  "contractName": "Lottery2",
  "abi": [
    {
      "inputs": [],
      "stateMutability": "nonpayable",
      "type": "constructor"
    },
    {
      "inputs": [],
      "name": "NoOfParticipants",
      "outputs": [
        {
          "internalType": "uint256",
          "name": "",
          "type": "uint256"
        }
      ],
      "stateMutability": "view",
      "type": "function"
    },
    {
      "inputs": [
        {
          "internalType": "address",
          "name": "",
          "type": "address"
        }
      ],
      "name": "funds",
      "outputs": [
        {
          "internalType": "uint256",
          "name": "",
          "type": "uint256"
        }
      ],
      "stateMutability": "view",
      "type": "function"
    },
    {
      "inputs": [],
      "name": "leftAmount",
      "outputs": [
        {
          "internalType": "uint256",
          "name": "",
          "type": "uint256"
        }
      ],
      "stateMutability": "view",
      "type": "function"
    },
    {
      "inputs": [],
      "name": "manager",
      "outputs": [
        {
          "internalType": "address payable",
          "name": "",
          "type": "address"
        }
      ],
      "stateMutability": "view",
      "type": "function"
    },
    {
      "inputs": [
        {
          "internalType": "uint256",
          "name": "",
          "type": "uint256"
        }
      ],
      "name": "participants",
      "outputs": [
        {
          "internalType": "address",
          "name": "",
          "type": "address"
        }
      ],
      "stateMutability": "view",
      "type": "function"
    },
    {
      "inputs": [],
      "name": "price",
      "outputs": [
        {
          "internalType": "uint256",
          "name": "",
          "type": "uint256"
        }
      ],
      "stateMutability": "view",
      "type": "function"
    },
    {
      "inputs": [],
      "name": "receiver",
      "outputs": [
        {
          "internalType": "address payable",
          "name": "",
          "type": "address"
        }
      ],
      "stateMutability": "view",
      "type": "function"
    },
    {
      "inputs": [],
      "name": "winner",
      "outputs": [
        {
          "internalType": "address payable",
          "name": "",
          "type": "address"
        }
      ],
      "stateMutability": "view",
      "type": "function"
    },
    {
      "inputs": [],
      "name": "winnerIndex",
      "outputs": [
        {
          "internalType": "uint256",
          "name": "",
          "type": "uint256"
        }
      ],
      "stateMutability": "view",
      "type": "function"
    },
    {
      "inputs": [],
      "name": "winningAmount",
      "outputs": [
        {
          "internalType": "uint256",
          "name": "",
          "type": "uint256"
        }
      ],
      "stateMutability": "view",
      "type": "function"
    },
    {
      "stateMutability": "payable",
      "type": "receive"
    },
    {
      "inputs": [],
      "name": "getContractBalance",
      "outputs": [
        {
          "internalType": "uint256",
          "name": "",
          "type": "uint256"
        }
      ],
      "stateMutability": "view",
      "type": "function"
    },
    {
      "inputs": [
        {
          "internalType": "address",
          "name": "account",
          "type": "address"
        }
      ],
      "name": "setManager",
      "outputs": [],
      "stateMutability": "nonpayable",
      "type": "function"
    },
    {
      "inputs": [
        {
          "internalType": "uint256",
          "name": "number",
          "type": "uint256"
        }
      ],
      "name": "setTickets",
      "outputs": [],
      "stateMutability": "nonpayable",
      "type": "function"
    },
    {
      "inputs": [
        {
          "internalType": "uint256",
          "name": "_price",
          "type": "uint256"
        }
      ],
      "name": "setPrice",
      "outputs": [],
      "stateMutability": "nonpayable",
      "type": "function"
    },
    {
      "inputs": [],
      "name": "getParticipants",
      "outputs": [
        {
          "internalType": "address[]",
          "name": "",
          "type": "address[]"
        }
      ],
      "stateMutability": "view",
      "type": "function"
    },
    {
      "inputs": [],
      "name": "getFunds",
      "outputs": [
        {
          "internalType": "uint256[]",
          "name": "",
          "type": "uint256[]"
        }
      ],
      "stateMutability": "view",
      "type": "function"
    },
    {
      "inputs": [
        {
          "internalType": "uint256",
          "name": "numTickets",
          "type": "uint256"
        }
      ],
      "name": "participate",
      "outputs": [],
      "stateMutability": "payable",
      "type": "function"
    },
    {
      "inputs": [
        {
          "internalType": "address",
          "name": "account",
          "type": "address"
        }
      ],
      "name": "hasParticipated",
      "outputs": [
        {
          "internalType": "bool",
          "name": "",
          "type": "bool"
        }
      ],
      "stateMutability": "view",
      "type": "function"
    },
    {
      "inputs": [],
      "name": "withdrawFunds",
      "outputs": [],
      "stateMutability": "nonpayable",
      "type": "function"
    },
    {
      "inputs": [],
      "name": "payWinner",
      "outputs": [],
      "stateMutability": "nonpayable",
      "type": "function"
    },
    {
      "inputs": [],
      "name": "getWinner",
      "outputs": [
        {
          "internalType": "address",
          "name": "",
          "type": "address"
        }
      ],
      "stateMutability": "view",
      "type": "function"
    },
    {
      "inputs": [],
      "name": "getfundsneeded",
      "outputs": [
        {
          "internalType": "uint256",
          "name": "",
          "type": "uint256"
        }
      ],
      "stateMutability": "view",
      "type": "function"
    },
    {
      "inputs": [],
      "name": "decide",
      "outputs": [],
      "stateMutability": "nonpayable",
      "type": "function"
    }
  ],
  "bytecode": "0x60a060405234801561001057600080fd5b503073ffffffffffffffffffffffffffffffffffffffff1660808173ffffffffffffffffffffffffffffffffffffffff1681525050608051611db161006060003960006112e90152611db16000f3fe6080604052600436106101445760003560e01c80638f00cbfa116100b6578063be71248a1161006f578063be71248a14610414578063d0ebdbe71461042b578063dfbf53ae14610454578063e2ae93fb1461047f578063eadf76c5146104bc578063f7260d3e146104e75761014b565b80638f00cbfa1461030257806391b7f5ed1461032d57806398f22c1214610356578063a035b1fe14610381578063a80b9b9e146103ac578063b4fb3ee3146103d75761014b565b80634d9b3735116101085780634d9b37351461020f578063592e65fd1461023a5780635aa68ac0146102655780636f9fb98a14610290578063845c9306146102bb5780638e7ea5b2146102d75761014b565b806324600fc314610150578063305fcef31461016757806335c1d3491461017e578063481c6a75146101bb5780634adffaa8146101e65761014b565b3661014b57005b600080fd5b34801561015c57600080fd5b50610165610512565b005b34801561017357600080fd5b5061017c61066d565b005b34801561018a57600080fd5b506101a560048036038101906101a09190611471565b610729565b6040516101b291906114df565b60405180910390f35b3480156101c757600080fd5b506101d0610768565b6040516101dd919061151b565b60405180910390f35b3480156101f257600080fd5b5061020d60048036038101906102089190611471565b61078c565b005b34801561021b57600080fd5b50610224610824565b60405161023191906115f4565b60405180910390f35b34801561024657600080fd5b5061024f610940565b60405161025c9190611625565b60405180910390f35b34801561027157600080fd5b5061027a610946565b60405161028791906116fe565b60405180910390f35b34801561029c57600080fd5b506102a56109d4565b6040516102b29190611625565b60405180910390f35b6102d560048036038101906102d09190611471565b6109dc565b005b3480156102e357600080fd5b506102ec610c9b565b6040516102f991906114df565b60405180910390f35b34801561030e57600080fd5b50610317610d54565b6040516103249190611625565b60405180910390f35b34801561033957600080fd5b50610354600480360381019061034f9190611471565b610d5a565b005b34801561036257600080fd5b5061036b610df2565b6040516103789190611625565b60405180910390f35b34801561038d57600080fd5b50610396610df8565b6040516103a39190611625565b60405180910390f35b3480156103b857600080fd5b506103c1610dfe565b6040516103ce9190611625565b60405180910390f35b3480156103e357600080fd5b506103fe60048036038101906103f9919061174c565b610e1c565b60405161040b9190611794565b60405180910390f35b34801561042057600080fd5b50610429610ecb565b005b34801561043757600080fd5b50610452600480360381019061044d919061174c565b611260565b005b34801561046057600080fd5b506104696112a3565b604051610476919061151b565b60405180910390f35b34801561048b57600080fd5b506104a660048036038101906104a1919061174c565b6112c9565b6040516104b39190611625565b60405180910390f35b3480156104c857600080fd5b506104d16112e1565b6040516104de9190611625565b60405180910390f35b3480156104f357600080fd5b506104fc6112e7565b604051610509919061151b565b60405180910390f35b60005b60038054905081101561065457600060038281548110610538576105376117af565b5b9060005260206000200160009054906101000a900473ffffffffffffffffffffffffffffffffffffffff1690506000600460008373ffffffffffffffffffffffffffffffffffffffff1673ffffffffffffffffffffffffffffffffffffffff168152602001908152602001600020549050600081111561063f578173ffffffffffffffffffffffffffffffffffffffff166108fc829081150290604051600060405180830381858888f193505050501580156105f8573d6000803e3d6000fd5b506000600460008473ffffffffffffffffffffffffffffffffffffffff1673ffffffffffffffffffffffffffffffffffffffff168152602001908152602001600020819055505b5050808061064c9061180d565b915050610515565b5060006009819055506003600061066b919061136e565b565b60008054906101000a900473ffffffffffffffffffffffffffffffffffffffff1673ffffffffffffffffffffffffffffffffffffffff163373ffffffffffffffffffffffffffffffffffffffff16146106fb576040517f08c379a00000000000000000000000000000000000000000000000000000000081526004016106f2906118d9565b60405180910390fd5b610703610dfe565b61070b6109d4565b141561071e57610719610ecb565b610727565b610726610512565b5b565b6003818154811061073957600080fd5b906000526020600020016000915054906101000a900473ffffffffffffffffffffffffffffffffffffffff1681565b60008054906101000a900473ffffffffffffffffffffffffffffffffffffffff1681565b60008054906101000a900473ffffffffffffffffffffffffffffffffffffffff1673ffffffffffffffffffffffffffffffffffffffff163373ffffffffffffffffffffffffffffffffffffffff161461081a576040517f08c379a0000000000000000000000000000000000000000000000000000000008152600401610811906118d9565b60405180910390fd5b8060058190555050565b6060600060095467ffffffffffffffff811115610844576108436118f9565b5b6040519080825280602002602001820160405280156108725781602001602082028036833780820191505090505b50905060005b60095481101561093857600060038281548110610898576108976117af565b5b9060005260206000200160009054906101000a900473ffffffffffffffffffffffffffffffffffffffff169050600460008273ffffffffffffffffffffffffffffffffffffffff1673ffffffffffffffffffffffffffffffffffffffff16815260200190815260200160002054838381518110610918576109176117af565b5b6020026020010181815250505080806109309061180d565b915050610878565b508091505090565b60095481565b606060038054806020026020016040519081016040528092919081815260200182805480156109ca57602002820191906000526020600020905b8160009054906101000a900473ffffffffffffffffffffffffffffffffffffffff1673ffffffffffffffffffffffffffffffffffffffff1681526020019060010190808311610980575b5050505050905090565b600047905090565b600033905060008054906101000a900473ffffffffffffffffffffffffffffffffffffffff1673ffffffffffffffffffffffffffffffffffffffff168173ffffffffffffffffffffffffffffffffffffffff161415610a70576040517f08c379a0000000000000000000000000000000000000000000000000000000008152600401610a6790611974565b60405180910390fd5b6002600554610a7f91906119c3565b821115610ac1576040517f08c379a0000000000000000000000000000000000000000000000000000000008152600401610ab890611a66565b60405180910390fd5b610aca33610e1c565b15610b0a576040517f08c379a0000000000000000000000000000000000000000000000000000000008152600401610b0190611ad2565b60405180910390fd5b6000610b216001548461130b90919063ffffffff16565b905080341015610b66576040517f08c379a0000000000000000000000000000000000000000000000000000000008152600401610b5d90611b64565b60405180910390fd5b6000610b7b823461132190919063ffffffff16565b90508273ffffffffffffffffffffffffffffffffffffffff166108fc829081150290604051600060405180830381858888f19350505050158015610bc3573d6000803e3d6000fd5b506003339080600181540180825580915050600190039060005260206000200160009091909190916101000a81548173ffffffffffffffffffffffffffffffffffffffff021916908373ffffffffffffffffffffffffffffffffffffffff160217905550610c3a813461132190919063ffffffff16565b600460003373ffffffffffffffffffffffffffffffffffffffff1673ffffffffffffffffffffffffffffffffffffffff1681526020019081526020016000208190555060096000815480929190610c909061180d565b919050555050505050565b60008060009054906101000a900473ffffffffffffffffffffffffffffffffffffffff1673ffffffffffffffffffffffffffffffffffffffff163373ffffffffffffffffffffffffffffffffffffffff1614610d2c576040517f08c379a0000000000000000000000000000000000000000000000000000000008152600401610d23906118d9565b60405180910390fd5b600260009054906101000a900473ffffffffffffffffffffffffffffffffffffffff16905090565b60065481565b60008054906101000a900473ffffffffffffffffffffffffffffffffffffffff1673ffffffffffffffffffffffffffffffffffffffff163373ffffffffffffffffffffffffffffffffffffffff1614610de8576040517f08c379a0000000000000000000000000000000000000000000000000000000008152600401610ddf906118d9565b60405180910390fd5b8060018190555050565b60075481565b60015481565b6000610e1760015460055461130b90919063ffffffff16565b905090565b600080600090505b600380549050811015610ec05760038181548110610e4557610e446117af565b5b9060005260206000200160009054906101000a900473ffffffffffffffffffffffffffffffffffffffff1673ffffffffffffffffffffffffffffffffffffffff168373ffffffffffffffffffffffffffffffffffffffff161415610ead576001915050610ec6565b8080610eb89061180d565b915050610e24565b50600090505b919050565b600380805490501015610f13576040517f08c379a0000000000000000000000000000000000000000000000000000000008152600401610f0a90611bf6565b60405180910390fd5b600060038054905090506000610f27611337565b9050600082824333604051602001610f4193929190611c7f565b6040516020818303038152906040528051906020012060001c610f649190611cbc565b905080600681905550600360065481548110610f8357610f826117af565b5b9060005260206000200160009054906101000a900473ffffffffffffffffffffffffffffffffffffffff16600260006101000a81548173ffffffffffffffffffffffffffffffffffffffff021916908373ffffffffffffffffffffffffffffffffffffffff1602179055506002610ff86109d4565b61100291906119c3565b6007819055506007546110136109d4565b61101d9190611ced565b600881905550600260009054906101000a900473ffffffffffffffffffffffffffffffffffffffff1673ffffffffffffffffffffffffffffffffffffffff166108fc6007549081150290604051600060405180830381858888f1935050505015801561108d573d6000803e3d6000fd5b5060008054906101000a900473ffffffffffffffffffffffffffffffffffffffff1673ffffffffffffffffffffffffffffffffffffffff166108fc6008549081150290604051600060405180830381858888f193505050501580156110f6573d6000803e3d6000fd5b50600067ffffffffffffffff811115611112576111116118f9565b5b6040519080825280602002602001820160405280156111405781602001602082028036833780820191505090505b506003908051906020019061115692919061138f565b5060005b6003805490508110156112525760006003828154811061117d5761117c6117af565b5b9060005260206000200160009054906101000a900473ffffffffffffffffffffffffffffffffffffffff1690506000600460008373ffffffffffffffffffffffffffffffffffffffff1673ffffffffffffffffffffffffffffffffffffffff168152602001908152602001600020549050600081111561123d576000600460008473ffffffffffffffffffffffffffffffffffffffff1673ffffffffffffffffffffffffffffffffffffffff168152602001908152602001600020819055505b5050808061124a9061180d565b91505061115a565b506000600981905550505050565b806000806101000a81548173ffffffffffffffffffffffffffffffffffffffff021916908373ffffffffffffffffffffffffffffffffffffffff16021790555050565b600260009054906101000a900473ffffffffffffffffffffffffffffffffffffffff1681565b60046020528060005260406000206000915090505481565b60085481565b7f000000000000000000000000000000000000000000000000000000000000000081565b600081836113199190611d21565b905092915050565b6000818361132f9190611ced565b905092915050565b6000426009543060405160200161135093929190611c7f565b6040516020818303038152906040528051906020012060001c905090565b508054600082559060005260206000209081019061138c9190611419565b50565b828054828255906000526020600020908101928215611408579160200282015b828111156114075782518260006101000a81548173ffffffffffffffffffffffffffffffffffffffff021916908373ffffffffffffffffffffffffffffffffffffffff160217905550916020019190600101906113af565b5b5090506114159190611419565b5090565b5b8082111561143257600081600090555060010161141a565b5090565b600080fd5b6000819050919050565b61144e8161143b565b811461145957600080fd5b50565b60008135905061146b81611445565b92915050565b60006020828403121561148757611486611436565b5b60006114958482850161145c565b91505092915050565b600073ffffffffffffffffffffffffffffffffffffffff82169050919050565b60006114c98261149e565b9050919050565b6114d9816114be565b82525050565b60006020820190506114f460008301846114d0565b92915050565b60006115058261149e565b9050919050565b611515816114fa565b82525050565b6000602082019050611530600083018461150c565b92915050565b600081519050919050565b600082825260208201905092915050565b6000819050602082019050919050565b61156b8161143b565b82525050565b600061157d8383611562565b60208301905092915050565b6000602082019050919050565b60006115a182611536565b6115ab8185611541565b93506115b683611552565b8060005b838110156115e75781516115ce8882611571565b97506115d983611589565b9250506001810190506115ba565b5085935050505092915050565b6000602082019050818103600083015261160e8184611596565b905092915050565b61161f8161143b565b82525050565b600060208201905061163a6000830184611616565b92915050565b600081519050919050565b600082825260208201905092915050565b6000819050602082019050919050565b611675816114be565b82525050565b6000611687838361166c565b60208301905092915050565b6000602082019050919050565b60006116ab82611640565b6116b5818561164b565b93506116c08361165c565b8060005b838110156116f15781516116d8888261167b565b97506116e383611693565b9250506001810190506116c4565b5085935050505092915050565b6000602082019050818103600083015261171881846116a0565b905092915050565b611729816114be565b811461173457600080fd5b50565b60008135905061174681611720565b92915050565b60006020828403121561176257611761611436565b5b600061177084828501611737565b91505092915050565b60008115159050919050565b61178e81611779565b82525050565b60006020820190506117a96000830184611785565b92915050565b7f4e487b7100000000000000000000000000000000000000000000000000000000600052603260045260246000fd5b7f4e487b7100000000000000000000000000000000000000000000000000000000600052601160045260246000fd5b60006118188261143b565b91507fffffffffffffffffffffffffffffffffffffffffffffffffffffffffffffffff82141561184b5761184a6117de565b5b600182019050919050565b600082825260208201905092915050565b7f4f6e6c7920746865206d616e616765722063616e2063616c6c2074686973206660008201527f756e6374696f6e2e000000000000000000000000000000000000000000000000602082015250565b60006118c3602883611856565b91506118ce82611867565b604082019050919050565b600060208201905081810360008301526118f2816118b6565b9050919050565b7f4e487b7100000000000000000000000000000000000000000000000000000000600052604160045260246000fd5b7f546865206d616e616765722063616e6e6f742062757921000000000000000000600082015250565b600061195e601783611856565b915061196982611928565b602082019050919050565b6000602082019050818103600083015261198d81611951565b9050919050565b7f4e487b7100000000000000000000000000000000000000000000000000000000600052601260045260246000fd5b60006119ce8261143b565b91506119d98361143b565b9250826119e9576119e8611994565b5b828204905092915050565b7f596f752063616e6e6f7420627579206d6f7265207468616e2068616c66206f6660008201527f2074686520746f74616c207469636b6574732100000000000000000000000000602082015250565b6000611a50603383611856565b9150611a5b826119f4565b604082019050919050565b60006020820190508181036000830152611a7f81611a43565b9050919050565b7f596f75206861766520616c726561647920706172746963697061746564210000600082015250565b6000611abc601e83611856565b9150611ac782611a86565b602082019050919050565b60006020820190508181036000830152611aeb81611aaf565b9050919050565b7f4e6f7420656e6f7567682062616c616e636520696e20796f7572206163636f7560008201527f6e74210000000000000000000000000000000000000000000000000000000000602082015250565b6000611b4e602383611856565b9150611b5982611af2565b604082019050919050565b60006020820190508181036000830152611b7d81611b41565b9050919050565b7f54686572652073686f756c64206265206174206c65617374203320706172746960008201527f636970616e74732e000000000000000000000000000000000000000000000000602082015250565b6000611be0602883611856565b9150611beb82611b84565b604082019050919050565b60006020820190508181036000830152611c0f81611bd3565b9050919050565b6000819050919050565b611c31611c2c8261143b565b611c16565b82525050565b60008160601b9050919050565b6000611c4f82611c37565b9050919050565b6000611c6182611c44565b9050919050565b611c79611c74826114be565b611c56565b82525050565b6000611c8b8286611c20565b602082019150611c9b8285611c20565b602082019150611cab8284611c68565b601482019150819050949350505050565b6000611cc78261143b565b9150611cd28361143b565b925082611ce257611ce1611994565b5b828206905092915050565b6000611cf88261143b565b9150611d038361143b565b925082821015611d1657611d156117de565b5b828203905092915050565b6000611d2c8261143b565b9150611d378361143b565b9250817fffffffffffffffffffffffffffffffffffffffffffffffffffffffffffffffff0483118215151615611d7057611d6f6117de565b5b82820290509291505056fea264697066735822122003f7fdad06e202e62c6dbbc8714830a5d095d2e902cb0e76ec9f181dbc7a406d64736f6c63430008090033",
  "immutableReferences": {
    "319": [
      {
        "length": 32,
        "start": 4841
      }
    ]
  },
  "source": "// SPDX-License-Identifier: MIT\r\npragma solidity ^0.8.0;\r\nimport \"@openzeppelin/contracts/utils/math/SafeMath.sol\";\r\n\r\n\r\ncontract Lottery2 {\r\n    using SafeMath for uint256;\r\n    address payable public immutable receiver;\r\n    address payable public manager;\r\n    uint256 public price;\r\n    address payable public winner;\r\n    address[] public participants;\r\n    mapping(address => uint256) public funds;\r\n    uint256 totaltickets;\r\n    uint256 public winnerIndex;\r\n    uint256 public winningAmount;\r\n    uint256 public leftAmount;\r\n    uint256 public NoOfParticipants;\r\n\r\n    receive() external payable {}\r\n\r\n    constructor() {\r\n        receiver = payable(address(this));\r\n    }\r\n\r\n    /////////////////////////////////////////Manger-Section////////////////////////////////////////////////////////\r\n    modifier onlyManager() {\r\n        require(\r\n            msg.sender == manager,\r\n            \"Only the manager can call this function.\"\r\n        );\r\n        _;\r\n    }\r\n\r\n    function getContractBalance() public view returns (uint256) {\r\n        return address(this).balance;\r\n    }\r\n\r\n    function setManager(address account) external {\r\n        manager = payable(account);\r\n    }\r\n\r\n    function setTickets(uint256 number) external onlyManager {\r\n        totaltickets = number;\r\n    }\r\n\r\n    function setPrice(uint256 _price) external onlyManager {\r\n        price = _price;\r\n    }\r\n\r\n    function getParticipants() external view returns (address[] memory) {\r\n        return participants;\r\n    }\r\n\r\n    function getFunds() external view returns (uint256[] memory) {\r\n        uint256[] memory Funds = new uint256[](NoOfParticipants);\r\n        for (uint256 i = 0; i < NoOfParticipants; i++) {\r\n            address buyer = participants[i];\r\n            Funds[i] = funds[buyer];\r\n        }\r\n        return Funds;\r\n    }\r\n\r\n    /////////////////////////////////////////Participation-Section////////////////////////////////////////////////////////\r\n    function participate(uint256 numTickets) external payable {\r\n        address payable buyer = payable(msg.sender);\r\n        require(buyer != manager, \"The manager cannot buy!\");\r\n        require(\r\n            numTickets <= (totaltickets / 2),\r\n            \"You cannot buy more than half of the total tickets!\"\r\n        );\r\n        require(!hasParticipated(msg.sender), \"You have already participated!\");\r\n        uint256 cost = numTickets.mul(price);\r\n        require(msg.value >= cost, \"Not enough balance in your account!\");\r\n\r\n        uint256 extraAmount = msg.value.sub(cost);\r\n        (buyer).transfer(extraAmount);\r\n\r\n        participants.push(msg.sender);\r\n        funds[msg.sender] = msg.value.sub(extraAmount);\r\n        NoOfParticipants++;\r\n    }\r\n\r\n    function hasParticipated(address account) public view returns (bool) {\r\n        for (uint256 i = 0; i < participants.length; i++) {\r\n            if (account == participants[i]) {\r\n                return true;\r\n            }\r\n        }\r\n        return false;\r\n    }\r\n\r\n    /////////////////////////////////////////Winner-Section////////////////////////////////////////////////////////\r\n    function withdrawFunds() public {\r\n        for (uint256 i = 0; i < participants.length; i++) {\r\n            address payable buyer = payable(participants[i]);\r\n            uint256 withdrawAmount = funds[buyer];\r\n            if (withdrawAmount > 0) {\r\n                buyer.transfer(withdrawAmount);\r\n                funds[buyer] = 0;\r\n            }\r\n        }\r\n        NoOfParticipants = 0;\r\n        delete participants;\r\n    }\r\n\r\n    function getRandom() internal view returns (uint256) {\r\n        return\r\n            uint256(\r\n                keccak256(\r\n                    abi.encodePacked(\r\n                        block.timestamp,\r\n                        NoOfParticipants,\r\n                        address(this)\r\n                    )\r\n                )\r\n            );\r\n    }\r\n\r\n    function payWinner() public {\r\n        require(\r\n            participants.length >= 3,\r\n            \"There should be at least 3 participants.\"\r\n        );\r\n        uint256 range = participants.length;\r\n        uint256 random = getRandom();\r\n        uint256 randomIndex = uint256(\r\n            keccak256(abi.encodePacked(random, block.number, msg.sender))\r\n        ) % range;\r\n        winnerIndex = randomIndex;\r\n        winner = payable(participants[winnerIndex]);\r\n        winningAmount = getContractBalance() / 2;\r\n        leftAmount = getContractBalance() - winningAmount;\r\n        winner.transfer(winningAmount);\r\n        manager.transfer(leftAmount);\r\n        participants = new address payable[](0);\r\n        for (uint256 i = 0; i < participants.length; i++) {\r\n            address payable buyer = payable(participants[i]);\r\n            uint256 withdrawAmount = funds[buyer];\r\n            if (withdrawAmount > 0) {\r\n                funds[buyer] = 0;\r\n            }\r\n        }\r\n        NoOfParticipants = 0;\r\n    }\r\n\r\n    function getWinner() external view onlyManager returns (address) {\r\n        return winner;\r\n    }\r\n\r\n    /////////////////////////////////////////Decision-Section////////////////////////////////////////////////////////\r\n    function getfundsneeded() public view returns (uint256) {\r\n        return (totaltickets.mul(price));\r\n    }\r\n\r\n    function decide() external onlyManager {\r\n       \r\n        if (getContractBalance() == getfundsneeded()) {\r\n            payWinner();\r\n            // winner=payable(address(0));\r\n        } else {\r\n            withdrawFunds();\r\n        }\r\n    }\r\n}\r\n//1000000000000000000\r\n",
  "sourcePath": "C:\\Blockcahin\\AdvancedLotteryProject\\contracts\\Lottery.sol",
  "compiler": {
    "name": "solc",
    "version": "0.8.9+commit.e5eed63a.Emscripten.clang"
  },
  "schemaVersion": "3.4.11",
  "updatedAt": "2023-05-06T07:37:45.978Z",
  "devdoc": {
    "kind": "dev",
    "methods": {},
    "version": 1
  },
  "userdoc": {
    "kind": "user",
    "methods": {},
    "version": 1
  }
}